:100000000C942A000C9434000C9434000C943400AA
:100010000C9434000C9434000C9434000C94340090
:100020000C9434000C9434000C9434000C94340080
:100030000C9434000C9434000C9434000C94340070
:100040000C9434000C9434000C9434000C94340060
:100050000C94340011241FBECFE5D8E0DEBFCDBF25
:100060000E9436000C9453000C94000081B38E7FE4
:1000700081BB82B38E7F82BB81B3806181BB809B59
:100080000FC082B3806182BB2FEF89E698E12150D7
:1000900080409040E1F700C0000082B38F7E82BBB9
:0A00A0008099FECFECCFF894FFCF5B
:00000001FF
