:100000000C942A000C9434000C9434000C943400AA
:100010000C9434000C9434000C9434000C94340090
:100020000C9434000C9434000C9434000C94340080
:100030000C9434000C9434000C9434000C94340070
:100040000C9434000C9434000C9434000C94340060
:100050000C94340011241FBECFE5D8E0DEBFCDBF25
:100060000E9436000C9482000C94000081B3806ED4
:1000700081BB82B3806282BB2FEF80E792E0215088
:1000800080409040E1F700C0000082B3806482BBF2
:100090002FEF80E792E0215080409040E1F700C0D0
:1000A000000082B3806882BB2FEF82E597E0215089
:1000B00080409040E1F700C0000082B38F7782BBA0
:1000C0002FEF80E792E0215080409040E1F700C0A0
:1000D000000082B38F7B82BB2FEF80E792E021503C
:1000E00080409040E1F700C0000082B38F7D82BB6A
:1000F0002FEF80E792E0215080409040E1F700C070
:080100000000B7CFF894FFCF17
:00000001FF
