:100000000C942A000C948D000C94AB000C94C90045
:100010000C943C000C943C000C943C000C943C0070
:100020000C943C000C943C000C943C000C943C0060
:100030000C943C000C943C000C943C000C943C0050
:100040000C943C000C943C000C943C000C943C0040
:100050000C943C0011241FBECFE5D8E0DEBFCDBF1D
:1000600020E0A0E6B0E001C01D92A036B207E1F7A3
:100070000E9458000C94E7000C94000087B398B3DA
:100080008B7F98BB87BB81B392B3837F92BB81BBCD
:1000900081B392B3806E92BB81BB88B399B38B7FDF
:1000A00099BB88BB82B393B3837F93BB82BB089514
:1000B0000E943E0085B796B78C6096BF85BF85B716
:1000C00096B7816096BF85BF85B796B78D7F96BF7F
:1000D00085BF84B795B78F7B95BF84BF8BB79CB71F
:1000E000806E9CBF8BBF789482B393B38F7D93BB9C
:1000F00082BB82B393B38F7B93BB82BB82B393B338
:100100008F7793BB82BB2FE38DE093E0215080403B
:100110009040E1F700C00000E7CF1F920F920FB6AA
:100120000F9211242F938F939F9382B393B3806286
:1001300093BB82BB2FE38DE093E021508040904041
:10014000E1F700C000009F918F912F910F900FBE9B
:100150000F901F9018951F920F920FB60F921124B7
:100160002F938F939F9382B393B3806493BB82BB8F
:100170002FE38DE093E0215080409040E1F700C0F4
:1001800000009F918F912F910F900FBE0F901F90A5
:1001900018951F920F920FB60F9211242F938F93E1
:1001A0009F9382B393B3806893BB82BB2FE38DE0B0
:1001B00093E0215080409040E1F700C000009F9103
:1001C0008F912F910F900FBE0F901F901895F8945C
:0201D000FFCF5F
:00000001FF
