:020000040800F2
:1000000000280020F501000845020008450200080C
:1000100045020008450200084502000800000000F3
:100020000000000000000000000000004502000881
:1000300045020008000000004502000845020008D3
:100040004502000845020008450200084502000874
:100050004502000845020008450200084502000864
:100060004502000845020008450200084502000854
:100070004502000845020008450200084502000844
:100080004502000845020008450200084502000834
:100090004502000845020008450200084502000824
:1000A0004502000845020008450200084502000814
:1000B0004502000845020008450200084502000804
:1000C00045020008450200084502000845020008F4
:1000D00045020008450200084502000845020008E4
:1000E0004502000845020008000000004502000823
:1000F00045020008450200084502000845020008C4
:1001000045020008450200084502000845020008B3
:1001100045020008450200084502000845020008A3
:100120004502000845020008450200084502000893
:1001300010B5054C237833B9044B13B10448AFF321
:1001400000800123237010BD0C000020000000007F
:100150009002000808B5034B1BB103490348AFF3F5
:10016000008008BD00000000100000209002000880
:1001700080B483B000AF1C4B1A68137843F00403BB
:1001800013701A4B1A6813686FF314531360174BEC
:100190001A68136843F400131360144B1A68136849
:1001A0006FF397531360124B1A68138843F400538C
:1001B000138000237B6002E07B6801337B607B68F7
:1001C00041F287329342F7DD094B1B681B68C3F38A
:1001D0004033DBB2064A126883F00103D9B21388B8
:1001E00061F34D331380E4E7000000200400002099
:1001F000080000200D488546AFF300800C480D49EB
:100200000D4A002302E0D458C4500433C4188C4271
:10021000F9D30A4A0A4C002301E013600432A242D7
:10022000FBD300F011F8FFF7A3FFFEE70028002042
:10023000000000200C000020B00200080C0000208C
:1002400028000020FEE7000070B500250C4E0D4C84
:10025000A41BA410A54209D100F01AF800250A4EEB
:100260000A4CA41BA410A54205D170BD56F8253038
:1002700098470135EEE756F8253098470135F2E703
:10028000A8020008A8020008A8020008AC020008A2
:10029000F8B500BFF8BC08BC9E467047F8B500BF73
:0802A000F8BC08BC9E46704743
:0402A80055010008F4
:0402AC003101000814
:0C02B00018100240040801400C08014036
:04000005080001F5F9
:00000001FF
