:100000000C942A000C9434000C9434000C943400AA
:100010000C9434000C9434000C9434000C94340090
:100020000C9434000C9434000C9434000C94340080
:100030000C9434000C9434000C9434000C94340070
:100040000C9434000C9434000C9434000C94340060
:100050000C94340011241FBECFE5D8E0DEBFCDBF25
:100060000E9436000C9480000C9400008CEF84BB3E
:10007000E0E0F0E041C085B3282F2F70CF018295DA
:100080009295907F9827807F9827822B85BB85B398
:10009000886085BB8FEC97E00197F1F700C0000006
:1000A00085B3877F85BB85B3282F2F70CB018295C1
:1000B0009295907F9827807F9827822B85BB85B368
:1000C000846085BB8FE99FE00197F1F700C00000D5
:1000D00085B38B7F85BB4F5F5F4F02C040E050E030
:1000E0004436510544F26F5F7F4F02C060E070E01C
:1000F0006A3071059CF33196EA30F105BCF3B8CF54
:04010000F894FFCFA1
:00000001FF
