:100000000C942A000C9434000C9434000C943400AA
:100010000C9434000C9434000C9434000C94340090
:100020000C9434000C9434000C9434000C94340080
:100030000C9434000C9434000C9434000C94340070
:100040000C9434000C9434000C9434000C94340060
:100050000C94340011241FBECFE5D8E0DEBFCDBF25
:100060000E9436000C9458000C94000081B3806EFE
:1000700081BB81B38E7F81BB80E0809B16C08130C5
:1000800051F018F0823069F010C022B390E292274C
:1000900092BB8F5F0AC022B390E4922792BB8F5F1E
:1000A00004C082B3805882BB80E08099FECFE5CF48
:0400B000F894FFCFF2
:00000001FF
